{
  "_format": "hh-sol-artifact-1",
  "contractName": "PixPotGame",
  "sourceName": "contracts/PixPotGame.sol",
  "abi": [
    {
      "inputs": [],
      "stateMutability": "nonpayable",
      "type": "constructor"
    },
    {
      "inputs": [
        {
          "internalType": "address",
          "name": "owner",
          "type": "address"
        }
      ],
      "name": "OwnableInvalidOwner",
      "type": "error"
    },
    {
      "inputs": [
        {
          "internalType": "address",
          "name": "account",
          "type": "address"
        }
      ],
      "name": "OwnableUnauthorizedAccount",
      "type": "error"
    },
    {
      "inputs": [],
      "name": "ReentrancyGuardReentrantCall",
      "type": "error"
    },
    {
      "anonymous": false,
      "inputs": [
        {
          "indexed": true,
          "internalType": "uint256",
          "name": "gameId",
          "type": "uint256"
        },
        {
          "indexed": true,
          "internalType": "address",
          "name": "player",
          "type": "address"
        }
      ],
      "name": "CommitCancelled",
      "type": "event"
    },
    {
      "anonymous": false,
      "inputs": [
        {
          "indexed": true,
          "internalType": "uint256",
          "name": "gameId",
          "type": "uint256"
        },
        {
          "indexed": false,
          "internalType": "uint256",
          "name": "previousGameId",
          "type": "uint256"
        }
      ],
      "name": "GameActivated",
      "type": "event"
    },
    {
      "anonymous": false,
      "inputs": [
        {
          "indexed": true,
          "internalType": "uint256",
          "name": "gameId",
          "type": "uint256"
        },
        {
          "indexed": false,
          "internalType": "string",
          "name": "imageHash",
          "type": "string"
        },
        {
          "indexed": false,
          "internalType": "uint256",
          "name": "totalPixels",
          "type": "uint256"
        },
        {
          "indexed": false,
          "internalType": "uint256",
          "name": "initialPool",
          "type": "uint256"
        }
      ],
      "name": "GameCreated",
      "type": "event"
    },
    {
      "anonymous": false,
      "inputs": [
        {
          "indexed": true,
          "internalType": "uint256",
          "name": "gameId",
          "type": "uint256"
        },
        {
          "indexed": false,
          "internalType": "uint256",
          "name": "poolReturned",
          "type": "uint256"
        }
      ],
      "name": "GameDeleted",
      "type": "event"
    },
    {
      "anonymous": false,
      "inputs": [
        {
          "indexed": true,
          "internalType": "uint256",
          "name": "gameId",
          "type": "uint256"
        },
        {
          "indexed": false,
          "internalType": "bool",
          "name": "suspended",
          "type": "bool"
        }
      ],
      "name": "GameSuspended",
      "type": "event"
    },
    {
      "anonymous": false,
      "inputs": [
        {
          "indexed": true,
          "internalType": "uint256",
          "name": "gameId",
          "type": "uint256"
        },
        {
          "indexed": true,
          "internalType": "address",
          "name": "player",
          "type": "address"
        },
        {
          "indexed": false,
          "internalType": "bytes32",
          "name": "commitHash",
          "type": "bytes32"
        },
        {
          "indexed": false,
          "internalType": "uint256",
          "name": "blockNumber",
          "type": "uint256"
        }
      ],
      "name": "GuessCommitted",
      "type": "event"
    },
    {
      "anonymous": false,
      "inputs": [
        {
          "indexed": false,
          "internalType": "uint256",
          "name": "oldFee",
          "type": "uint256"
        },
        {
          "indexed": false,
          "internalType": "uint256",
          "name": "newFee",
          "type": "uint256"
        }
      ],
      "name": "GuessFeeUpdated",
      "type": "event"
    },
    {
      "anonymous": false,
      "inputs": [
        {
          "indexed": true,
          "internalType": "uint256",
          "name": "gameId",
          "type": "uint256"
        },
        {
          "indexed": true,
          "internalType": "address",
          "name": "player",
          "type": "address"
        },
        {
          "indexed": false,
          "internalType": "string",
          "name": "guess",
          "type": "string"
        },
        {
          "indexed": false,
          "internalType": "bool",
          "name": "correct",
          "type": "bool"
        }
      ],
      "name": "GuessRevealed",
      "type": "event"
    },
    {
      "anonymous": false,
      "inputs": [
        {
          "indexed": true,
          "internalType": "address",
          "name": "previousOwner",
          "type": "address"
        },
        {
          "indexed": true,
          "internalType": "address",
          "name": "newOwner",
          "type": "address"
        }
      ],
      "name": "OwnershipTransferred",
      "type": "event"
    },
    {
      "anonymous": false,
      "inputs": [
        {
          "indexed": false,
          "internalType": "uint256",
          "name": "winnerPercentage",
          "type": "uint256"
        },
        {
          "indexed": false,
          "internalType": "uint256",
          "name": "revealerPercentage",
          "type": "uint256"
        }
      ],
      "name": "PercentagesUpdated",
      "type": "event"
    },
    {
      "anonymous": false,
      "inputs": [
        {
          "indexed": true,
          "internalType": "uint256",
          "name": "gameId",
          "type": "uint256"
        },
        {
          "indexed": true,
          "internalType": "address",
          "name": "revealer",
          "type": "address"
        },
        {
          "indexed": false,
          "internalType": "uint256",
          "name": "pixelCount",
          "type": "uint256"
        },
        {
          "indexed": false,
          "internalType": "uint256",
          "name": "poolAmount",
          "type": "uint256"
        }
      ],
      "name": "PixelRevealed",
      "type": "event"
    },
    {
      "anonymous": false,
      "inputs": [
        {
          "indexed": true,
          "internalType": "uint256",
          "name": "gameId",
          "type": "uint256"
        },
        {
          "indexed": true,
          "internalType": "address",
          "name": "depositor",
          "type": "address"
        },
        {
          "indexed": false,
          "internalType": "uint256",
          "name": "amount",
          "type": "uint256"
        },
        {
          "indexed": false,
          "internalType": "uint256",
          "name": "newPoolAmount",
          "type": "uint256"
        }
      ],
      "name": "PoolDeposit",
      "type": "event"
    },
    {
      "anonymous": false,
      "inputs": [
        {
          "indexed": true,
          "internalType": "uint256",
          "name": "gameId",
          "type": "uint256"
        },
        {
          "indexed": true,
          "internalType": "address",
          "name": "claimer",
          "type": "address"
        },
        {
          "indexed": false,
          "internalType": "uint256",
          "name": "amount",
          "type": "uint256"
        },
        {
          "indexed": false,
          "internalType": "string",
          "name": "prizeType",
          "type": "string"
        }
      ],
      "name": "PrizeClaimed",
      "type": "event"
    },
    {
      "anonymous": false,
      "inputs": [
        {
          "indexed": true,
          "internalType": "uint256",
          "name": "gameId",
          "type": "uint256"
        },
        {
          "indexed": true,
          "internalType": "address",
          "name": "revealer",
          "type": "address"
        },
        {
          "indexed": false,
          "internalType": "uint256",
          "name": "amount",
          "type": "uint256"
        }
      ],
      "name": "PrizeDistributed",
      "type": "event"
    },
    {
      "anonymous": false,
      "inputs": [
        {
          "indexed": true,
          "internalType": "uint256",
          "name": "gameId",
          "type": "uint256"
        },
        {
          "indexed": true,
          "internalType": "address",
          "name": "winner",
          "type": "address"
        },
        {
          "indexed": false,
          "internalType": "uint256",
          "name": "poolAmount",
          "type": "uint256"
        }
      ],
      "name": "WinnerDeclared",
      "type": "event"
    },
    {
      "inputs": [],
      "name": "REVEAL_DELAY_BLOCKS",
      "outputs": [
        {
          "internalType": "uint256",
          "name": "",
          "type": "uint256"
        }
      ],
      "stateMutability": "view",
      "type": "function"
    },
    {
      "inputs": [],
      "name": "activeGameId",
      "outputs": [
        {
          "internalType": "uint256",
          "name": "",
          "type": "uint256"
        }
      ],
      "stateMutability": "view",
      "type": "function"
    },
    {
      "inputs": [
        {
          "internalType": "uint256",
          "name": "_gameId",
          "type": "uint256"
        }
      ],
      "name": "cancelCommit",
      "outputs": [],
      "stateMutability": "nonpayable",
      "type": "function"
    },
    {
      "inputs": [
        {
          "internalType": "uint256",
          "name": "_gameId",
          "type": "uint256"
        }
      ],
      "name": "claimMyRevealerPrize",
      "outputs": [],
      "stateMutability": "nonpayable",
      "type": "function"
    },
    {
      "inputs": [
        {
          "internalType": "uint256",
          "name": "_gameId",
          "type": "uint256"
        }
      ],
      "name": "claimRevealerPrizes",
      "outputs": [],
      "stateMutability": "nonpayable",
      "type": "function"
    },
    {
      "inputs": [
        {
          "internalType": "uint256",
          "name": "_gameId",
          "type": "uint256"
        }
      ],
      "name": "claimWinnerPrize",
      "outputs": [],
      "stateMutability": "nonpayable",
      "type": "function"
    },
    {
      "inputs": [
        {
          "internalType": "uint256",
          "name": "_gameId",
          "type": "uint256"
        },
        {
          "internalType": "bytes32",
          "name": "_commitHash",
          "type": "bytes32"
        }
      ],
      "name": "commitGuess",
      "outputs": [],
      "stateMutability": "payable",
      "type": "function"
    },
    {
      "inputs": [
        {
          "internalType": "uint256",
          "name": "_gameId",
          "type": "uint256"
        },
        {
          "internalType": "string",
          "name": "_imageHash",
          "type": "string"
        },
        {
          "internalType": "bytes32",
          "name": "_answerCommitHash",
          "type": "bytes32"
        },
        {
          "internalType": "uint256",
          "name": "_totalPixels",
          "type": "uint256"
        }
      ],
      "name": "createGame",
      "outputs": [],
      "stateMutability": "payable",
      "type": "function"
    },
    {
      "inputs": [],
      "name": "currentGameId",
      "outputs": [
        {
          "internalType": "uint256",
          "name": "",
          "type": "uint256"
        }
      ],
      "stateMutability": "view",
      "type": "function"
    },
    {
      "inputs": [
        {
          "internalType": "uint256",
          "name": "_gameId",
          "type": "uint256"
        },
        {
          "internalType": "string",
          "name": "_answer",
          "type": "string"
        },
        {
          "internalType": "string",
          "name": "_adminSecret",
          "type": "string"
        }
      ],
      "name": "declareWinner",
      "outputs": [],
      "stateMutability": "nonpayable",
      "type": "function"
    },
    {
      "inputs": [
        {
          "internalType": "uint256",
          "name": "_gameId",
          "type": "uint256"
        }
      ],
      "name": "deleteGame",
      "outputs": [],
      "stateMutability": "nonpayable",
      "type": "function"
    },
    {
      "inputs": [
        {
          "internalType": "uint256",
          "name": "_gameId",
          "type": "uint256"
        }
      ],
      "name": "depositToPool",
      "outputs": [],
      "stateMutability": "payable",
      "type": "function"
    },
    {
      "inputs": [],
      "name": "emergencyWithdraw",
      "outputs": [],
      "stateMutability": "nonpayable",
      "type": "function"
    },
    {
      "inputs": [
        {
          "internalType": "uint256",
          "name": "",
          "type": "uint256"
        },
        {
          "internalType": "uint256",
          "name": "",
          "type": "uint256"
        }
      ],
      "name": "gameGuesses",
      "outputs": [
        {
          "internalType": "address",
          "name": "player",
          "type": "address"
        },
        {
          "internalType": "string",
          "name": "guess",
          "type": "string"
        },
        {
          "internalType": "uint256",
          "name": "timestamp",
          "type": "uint256"
        }
      ],
      "stateMutability": "view",
      "type": "function"
    },
    {
      "inputs": [
        {
          "internalType": "uint256",
          "name": "",
          "type": "uint256"
        }
      ],
      "name": "gameIds",
      "outputs": [
        {
          "internalType": "uint256",
          "name": "",
          "type": "uint256"
        }
      ],
      "stateMutability": "view",
      "type": "function"
    },
    {
      "inputs": [
        {
          "internalType": "uint256",
          "name": "",
          "type": "uint256"
        },
        {
          "internalType": "uint256",
          "name": "",
          "type": "uint256"
        }
      ],
      "name": "gameRevealers",
      "outputs": [
        {
          "internalType": "address",
          "name": "revealer",
          "type": "address"
        },
        {
          "internalType": "uint256",
          "name": "pixelCount",
          "type": "uint256"
        },
        {
          "internalType": "uint256",
          "name": "timestamp",
          "type": "uint256"
        }
      ],
      "stateMutability": "view",
      "type": "function"
    },
    {
      "inputs": [
        {
          "internalType": "uint256",
          "name": "",
          "type": "uint256"
        }
      ],
      "name": "games",
      "outputs": [
        {
          "internalType": "uint256",
          "name": "gameId",
          "type": "uint256"
        },
        {
          "internalType": "string",
          "name": "imageHash",
          "type": "string"
        },
        {
          "internalType": "bytes32",
          "name": "answerCommitHash",
          "type": "bytes32"
        },
        {
          "internalType": "uint256",
          "name": "totalPixels",
          "type": "uint256"
        },
        {
          "internalType": "uint256",
          "name": "revealedPixels",
          "type": "uint256"
        },
        {
          "internalType": "uint256",
          "name": "poolAmount",
          "type": "uint256"
        },
        {
          "internalType": "uint256",
          "name": "poolClaimed",
          "type": "uint256"
        },
        {
          "internalType": "address",
          "name": "winner",
          "type": "address"
        },
        {
          "internalType": "bool",
          "name": "isActive",
          "type": "bool"
        },
        {
          "internalType": "bool",
          "name": "isCompleted",
          "type": "bool"
        },
        {
          "internalType": "bool",
          "name": "isSuspended",
          "type": "bool"
        },
        {
          "internalType": "uint256",
          "name": "createdAt",
          "type": "uint256"
        },
        {
          "internalType": "uint256",
          "name": "endedAt",
          "type": "uint256"
        }
      ],
      "stateMutability": "view",
      "type": "function"
    },
    {
      "inputs": [],
      "name": "getAllGameIds",
      "outputs": [
        {
          "internalType": "uint256[]",
          "name": "",
          "type": "uint256[]"
        }
      ],
      "stateMutability": "view",
      "type": "function"
    },
    {
      "inputs": [],
      "name": "getAllGames",
      "outputs": [
        {
          "components": [
            {
              "internalType": "uint256",
              "name": "gameId",
              "type": "uint256"
            },
            {
              "internalType": "string",
              "name": "imageHash",
              "type": "string"
            },
            {
              "internalType": "bytes32",
              "name": "answerCommitHash",
              "type": "bytes32"
            },
            {
              "internalType": "uint256",
              "name": "totalPixels",
              "type": "uint256"
            },
            {
              "internalType": "uint256",
              "name": "revealedPixels",
              "type": "uint256"
            },
            {
              "internalType": "uint256",
              "name": "poolAmount",
              "type": "uint256"
            },
            {
              "internalType": "uint256",
              "name": "poolClaimed",
              "type": "uint256"
            },
            {
              "internalType": "address",
              "name": "winner",
              "type": "address"
            },
            {
              "internalType": "bool",
              "name": "isActive",
              "type": "bool"
            },
            {
              "internalType": "bool",
              "name": "isCompleted",
              "type": "bool"
            },
            {
              "internalType": "bool",
              "name": "isSuspended",
              "type": "bool"
            },
            {
              "internalType": "uint256",
              "name": "createdAt",
              "type": "uint256"
            },
            {
              "internalType": "uint256",
              "name": "endedAt",
              "type": "uint256"
            }
          ],
          "internalType": "struct PixPotGame.Game[]",
          "name": "",
          "type": "tuple[]"
        }
      ],
      "stateMutability": "view",
      "type": "function"
    },
    {
      "inputs": [],
      "name": "getCurrentGame",
      "outputs": [
        {
          "internalType": "uint256",
          "name": "gameId",
          "type": "uint256"
        },
        {
          "internalType": "string",
          "name": "imageHash",
          "type": "string"
        },
        {
          "internalType": "uint256",
          "name": "totalPixels",
          "type": "uint256"
        },
        {
          "internalType": "uint256",
          "name": "revealedPixels",
          "type": "uint256"
        },
        {
          "internalType": "uint256",
          "name": "poolAmount",
          "type": "uint256"
        },
        {
          "internalType": "address",
          "name": "winner",
          "type": "address"
        },
        {
          "internalType": "bool",
          "name": "isActive",
          "type": "bool"
        }
      ],
      "stateMutability": "view",
      "type": "function"
    },
    {
      "inputs": [
        {
          "internalType": "uint256",
          "name": "_gameId",
          "type": "uint256"
        }
      ],
      "name": "getGame",
      "outputs": [
        {
          "components": [
            {
              "internalType": "uint256",
              "name": "gameId",
              "type": "uint256"
            },
            {
              "internalType": "string",
              "name": "imageHash",
              "type": "string"
            },
            {
              "internalType": "bytes32",
              "name": "answerCommitHash",
              "type": "bytes32"
            },
            {
              "internalType": "uint256",
              "name": "totalPixels",
              "type": "uint256"
            },
            {
              "internalType": "uint256",
              "name": "revealedPixels",
              "type": "uint256"
            },
            {
              "internalType": "uint256",
              "name": "poolAmount",
              "type": "uint256"
            },
            {
              "internalType": "uint256",
              "name": "poolClaimed",
              "type": "uint256"
            },
            {
              "internalType": "address",
              "name": "winner",
              "type": "address"
            },
            {
              "internalType": "bool",
              "name": "isActive",
              "type": "bool"
            },
            {
              "internalType": "bool",
              "name": "isCompleted",
              "type": "bool"
            },
            {
              "internalType": "bool",
              "name": "isSuspended",
              "type": "bool"
            },
            {
              "internalType": "uint256",
              "name": "createdAt",
              "type": "uint256"
            },
            {
              "internalType": "uint256",
              "name": "endedAt",
              "type": "uint256"
            }
          ],
          "internalType": "struct PixPotGame.Game",
          "name": "",
          "type": "tuple"
        }
      ],
      "stateMutability": "view",
      "type": "function"
    },
    {
      "inputs": [
        {
          "internalType": "uint256",
          "name": "_offset",
          "type": "uint256"
        },
        {
          "internalType": "uint256",
          "name": "_limit",
          "type": "uint256"
        }
      ],
      "name": "getGamesPaginated",
      "outputs": [
        {
          "components": [
            {
              "internalType": "uint256",
              "name": "gameId",
              "type": "uint256"
            },
            {
              "internalType": "string",
              "name": "imageHash",
              "type": "string"
            },
            {
              "internalType": "bytes32",
              "name": "answerCommitHash",
              "type": "bytes32"
            },
            {
              "internalType": "uint256",
              "name": "totalPixels",
              "type": "uint256"
            },
            {
              "internalType": "uint256",
              "name": "revealedPixels",
              "type": "uint256"
            },
            {
              "internalType": "uint256",
              "name": "poolAmount",
              "type": "uint256"
            },
            {
              "internalType": "uint256",
              "name": "poolClaimed",
              "type": "uint256"
            },
            {
              "internalType": "address",
              "name": "winner",
              "type": "address"
            },
            {
              "internalType": "bool",
              "name": "isActive",
              "type": "bool"
            },
            {
              "internalType": "bool",
              "name": "isCompleted",
              "type": "bool"
            },
            {
              "internalType": "bool",
              "name": "isSuspended",
              "type": "bool"
            },
            {
              "internalType": "uint256",
              "name": "createdAt",
              "type": "uint256"
            },
            {
              "internalType": "uint256",
              "name": "endedAt",
              "type": "uint256"
            }
          ],
          "internalType": "struct PixPotGame.Game[]",
          "name": "gamesList",
          "type": "tuple[]"
        },
        {
          "internalType": "uint256",
          "name": "total",
          "type": "uint256"
        }
      ],
      "stateMutability": "view",
      "type": "function"
    },
    {
      "inputs": [
        {
          "internalType": "uint256",
          "name": "_gameId",
          "type": "uint256"
        }
      ],
      "name": "getGuessCount",
      "outputs": [
        {
          "internalType": "uint256",
          "name": "",
          "type": "uint256"
        }
      ],
      "stateMutability": "view",
      "type": "function"
    },
    {
      "inputs": [],
      "name": "getIncompleteGameIds",
      "outputs": [
        {
          "internalType": "uint256[]",
          "name": "",
          "type": "uint256[]"
        }
      ],
      "stateMutability": "view",
      "type": "function"
    },
    {
      "inputs": [],
      "name": "getIncompleteGames",
      "outputs": [
        {
          "components": [
            {
              "internalType": "uint256",
              "name": "gameId",
              "type": "uint256"
            },
            {
              "internalType": "string",
              "name": "imageHash",
              "type": "string"
            },
            {
              "internalType": "bytes32",
              "name": "answerCommitHash",
              "type": "bytes32"
            },
            {
              "internalType": "uint256",
              "name": "totalPixels",
              "type": "uint256"
            },
            {
              "internalType": "uint256",
              "name": "revealedPixels",
              "type": "uint256"
            },
            {
              "internalType": "uint256",
              "name": "poolAmount",
              "type": "uint256"
            },
            {
              "internalType": "uint256",
              "name": "poolClaimed",
              "type": "uint256"
            },
            {
              "internalType": "address",
              "name": "winner",
              "type": "address"
            },
            {
              "internalType": "bool",
              "name": "isActive",
              "type": "bool"
            },
            {
              "internalType": "bool",
              "name": "isCompleted",
              "type": "bool"
            },
            {
              "internalType": "bool",
              "name": "isSuspended",
              "type": "bool"
            },
            {
              "internalType": "uint256",
              "name": "createdAt",
              "type": "uint256"
            },
            {
              "internalType": "uint256",
              "name": "endedAt",
              "type": "uint256"
            }
          ],
          "internalType": "struct PixPotGame.Game[]",
          "name": "",
          "type": "tuple[]"
        }
      ],
      "stateMutability": "view",
      "type": "function"
    },
    {
      "inputs": [
        {
          "internalType": "uint256",
          "name": "_gameId",
          "type": "uint256"
        }
      ],
      "name": "getRevealerCount",
      "outputs": [
        {
          "internalType": "uint256",
          "name": "",
          "type": "uint256"
        }
      ],
      "stateMutability": "view",
      "type": "function"
    },
    {
      "inputs": [],
      "name": "getTotalGames",
      "outputs": [
        {
          "internalType": "uint256",
          "name": "",
          "type": "uint256"
        }
      ],
      "stateMutability": "view",
      "type": "function"
    },
    {
      "inputs": [
        {
          "internalType": "uint256",
          "name": "_gameId",
          "type": "uint256"
        },
        {
          "internalType": "address",
          "name": "_user",
          "type": "address"
        }
      ],
      "name": "getUserCommit",
      "outputs": [
        {
          "internalType": "bytes32",
          "name": "commitHash",
          "type": "bytes32"
        },
        {
          "internalType": "uint256",
          "name": "blockNumber",
          "type": "uint256"
        },
        {
          "internalType": "bool",
          "name": "revealed",
          "type": "bool"
        },
        {
          "internalType": "bool",
          "name": "canReveal",
          "type": "bool"
        }
      ],
      "stateMutability": "view",
      "type": "function"
    },
    {
      "inputs": [
        {
          "internalType": "uint256",
          "name": "_gameId",
          "type": "uint256"
        },
        {
          "internalType": "address",
          "name": "_user",
          "type": "address"
        }
      ],
      "name": "getUserContribution",
      "outputs": [
        {
          "internalType": "uint256",
          "name": "",
          "type": "uint256"
        }
      ],
      "stateMutability": "view",
      "type": "function"
    },
    {
      "inputs": [
        {
          "internalType": "uint256",
          "name": "_gameId",
          "type": "uint256"
        },
        {
          "internalType": "address",
          "name": "_user",
          "type": "address"
        }
      ],
      "name": "getUserPrize",
      "outputs": [
        {
          "internalType": "uint256",
          "name": "amount",
          "type": "uint256"
        },
        {
          "internalType": "bool",
          "name": "claimed",
          "type": "bool"
        }
      ],
      "stateMutability": "view",
      "type": "function"
    },
    {
      "inputs": [
        {
          "internalType": "uint256",
          "name": "",
          "type": "uint256"
        },
        {
          "internalType": "address",
          "name": "",
          "type": "address"
        }
      ],
      "name": "guessCommits",
      "outputs": [
        {
          "internalType": "bytes32",
          "name": "commitHash",
          "type": "bytes32"
        },
        {
          "internalType": "uint256",
          "name": "blockNumber",
          "type": "uint256"
        },
        {
          "internalType": "bool",
          "name": "revealed",
          "type": "bool"
        }
      ],
      "stateMutability": "view",
      "type": "function"
    },
    {
      "inputs": [],
      "name": "guessFee",
      "outputs": [
        {
          "internalType": "uint256",
          "name": "",
          "type": "uint256"
        }
      ],
      "stateMutability": "view",
      "type": "function"
    },
    {
      "inputs": [
        {
          "internalType": "uint256",
          "name": "",
          "type": "uint256"
        }
      ],
      "name": "incompleteGameIds",
      "outputs": [
        {
          "internalType": "uint256",
          "name": "",
          "type": "uint256"
        }
      ],
      "stateMutability": "view",
      "type": "function"
    },
    {
      "inputs": [],
      "name": "owner",
      "outputs": [
        {
          "internalType": "address",
          "name": "",
          "type": "address"
        }
      ],
      "stateMutability": "view",
      "type": "function"
    },
    {
      "inputs": [
        {
          "internalType": "uint256",
          "name": "",
          "type": "uint256"
        },
        {
          "internalType": "address",
          "name": "",
          "type": "address"
        }
      ],
      "name": "prizes",
      "outputs": [
        {
          "internalType": "uint256",
          "name": "winnerAmount",
          "type": "uint256"
        },
        {
          "internalType": "uint256",
          "name": "revealsAmount",
          "type": "uint256"
        },
        {
          "internalType": "uint256",
          "name": "amount",
          "type": "uint256"
        },
        {
          "internalType": "bool",
          "name": "winnerClaimed",
          "type": "bool"
        },
        {
          "internalType": "bool",
          "name": "revealsDistributed",
          "type": "bool"
        },
        {
          "internalType": "bool",
          "name": "claimed",
          "type": "bool"
        }
      ],
      "stateMutability": "view",
      "type": "function"
    },
    {
      "inputs": [],
      "name": "renounceOwnership",
      "outputs": [],
      "stateMutability": "nonpayable",
      "type": "function"
    },
    {
      "inputs": [
        {
          "internalType": "uint256",
          "name": "_gameId",
          "type": "uint256"
        },
        {
          "internalType": "string",
          "name": "_guess",
          "type": "string"
        },
        {
          "internalType": "string",
          "name": "_secret",
          "type": "string"
        }
      ],
      "name": "revealGuess",
      "outputs": [],
      "stateMutability": "nonpayable",
      "type": "function"
    },
    {
      "inputs": [
        {
          "internalType": "uint256",
          "name": "_gameId",
          "type": "uint256"
        },
        {
          "internalType": "uint256",
          "name": "_pixelCount",
          "type": "uint256"
        }
      ],
      "name": "revealPixels",
      "outputs": [],
      "stateMutability": "nonpayable",
      "type": "function"
    },
    {
      "inputs": [
        {
          "internalType": "uint256",
          "name": "",
          "type": "uint256"
        },
        {
          "internalType": "address",
          "name": "",
          "type": "address"
        }
      ],
      "name": "revealerContributions",
      "outputs": [
        {
          "internalType": "uint256",
          "name": "",
          "type": "uint256"
        }
      ],
      "stateMutability": "view",
      "type": "function"
    },
    {
      "inputs": [],
      "name": "revealerPercentage",
      "outputs": [
        {
          "internalType": "uint256",
          "name": "",
          "type": "uint256"
        }
      ],
      "stateMutability": "view",
      "type": "function"
    },
    {
      "inputs": [
        {
          "internalType": "uint256",
          "name": "_gameId",
          "type": "uint256"
        }
      ],
      "name": "setActiveGame",
      "outputs": [],
      "stateMutability": "nonpayable",
      "type": "function"
    },
    {
      "inputs": [
        {
          "internalType": "uint256",
          "name": "_gameId",
          "type": "uint256"
        },
        {
          "internalType": "bool",
          "name": "_suspend",
          "type": "bool"
        }
      ],
      "name": "setSuspendGame",
      "outputs": [],
      "stateMutability": "nonpayable",
      "type": "function"
    },
    {
      "inputs": [
        {
          "internalType": "address",
          "name": "newOwner",
          "type": "address"
        }
      ],
      "name": "transferOwnership",
      "outputs": [],
      "stateMutability": "nonpayable",
      "type": "function"
    },
    {
      "inputs": [
        {
          "internalType": "uint256",
          "name": "_newFee",
          "type": "uint256"
        }
      ],
      "name": "updateGuessFee",
      "outputs": [],
      "stateMutability": "nonpayable",
      "type": "function"
    },
    {
      "inputs": [
        {
          "internalType": "uint256",
          "name": "_winnerPercentage",
          "type": "uint256"
        },
        {
          "internalType": "uint256",
          "name": "_revealerPercentage",
          "type": "uint256"
        }
      ],
      "name": "updatePercentages",
      "outputs": [],
      "stateMutability": "nonpayable",
      "type": "function"
    },
    {
      "inputs": [],
      "name": "winnerPercentage",
      "outputs": [
        {
          "internalType": "uint256",
          "name": "",
          "type": "uint256"
        }
      ],
      "stateMutability": "view",
      "type": "function"
    },
    {
      "inputs": [
        {
          "internalType": "uint256",
          "name": "amount",
          "type": "uint256"
        }
      ],
      "name": "withdraw",
      "outputs": [],
      "stateMutability": "nonpayable",
      "type": "function"
    },
    {
      "stateMutability": "payable",
      "type": "receive"
    }
  ],
  "bytecode": "0x6080604052655af3107a40006002556046600355601e6004553480156200002557600080fd5b5033806200004d57604051631e4fbdf760e01b81526000600482015260240160405180910390fd5b620000588162000063565b5060018055620000b3565b600080546001600160a01b038381166001600160a01b0319831681178455604051919092169283917f8be0079c531659141344cd1fd0a4f28419497f9722a3daafe3b4186f6b6457e09190a35050565b61492180620000c36000396000f3fe60806040526004361061028c5760003560e01c80638ca4f1f51161015a578063c9477ce9116100c1578063db1c45f91161007a578063db1c45f914610972578063db2e21bc14610987578063e2abb1df1461099c578063e844edd9146109bc578063f2fde38b146109d1578063fac35736146109f157600080fd5b8063c9477ce91461079f578063d051dfd31461084b578063d44ae4fc146108e1578063d5eba61c14610910578063d6e3b25214610932578063d82c13f01461095257600080fd5b8063a2f77bcc11610113578063a2f77bcc146106df578063ae9b2d641461070c578063bab5c5a71461071f578063c20d22951461073f578063c78903561461075f578063c8d9fbb01461077f57600080fd5b80638ca4f1f5146105e65780638da5cb5b146105fc578063919e821d14610624578063968d901b1461065c5780639d9e74da14610684578063a0d9afc5146106c957600080fd5b80635117e338116101fe5780636b3d2cbb116101b75780636b3d2cbb146105295780636dcc656d1461054b5780636de0073f146105615780636e5b7f211461058e578063715018a6146105bb57806382b98f9d146105d057600080fd5b80635117e33814610463578063527433d614610483578063536a3ddc146104a357806354bd1bdd146104b95780635bd4349b1461050157806368b0e0701461051657600080fd5b8063248a55a111610250578063248a55a1146103925780632e1a7d4d146103b25780633b35bf1a146103d25780634270428a146103f25780634d6a2934146104205780634f8f4dce1461044357600080fd5b80630c0c305614610298578063117a5b90146103045780631da40aa01461033d5780631dece5da146103525780632189f8b71461037257600080fd5b3661029357005b600080fd5b3480156102a457600080fd5b506102e26102b3366004614096565b600c60209081526000928352604080842090915290825290208054600182015460029092015490919060ff1683565b6040805193845260208401929092521515908201526060015b60405180910390f35b34801561031057600080fd5b5061032461031f3660046140c2565b610a11565b6040516102fb9d9c9b9a9998979695949392919061412b565b61035061034b366004614255565b610b16565b005b34801561035e57600080fd5b5061035061036d3660046142ac565b610e73565b34801561037e57600080fd5b5061035061038d3660046142e1565b610fd5565b34801561039e57600080fd5b506103506103ad3660046140c2565b6111c4565b3480156103be57600080fd5b506103506103cd3660046140c2565b6114af565b3480156103de57600080fd5b506103506103ed3660046140c2565b611624565b3480156103fe57600080fd5b5061041261040d3660046142e1565b6116c2565b6040516102fb92919061440d565b34801561042c57600080fd5b50610435600281565b6040519081526020016102fb565b34801561044f57600080fd5b5061035061045e3660046140c2565b61194a565b34801561046f57600080fd5b5061043561047e366004614096565b611b39565b34801561048f57600080fd5b5061035061049e36600461442f565b611b63565b3480156104af57600080fd5b5061043560055481565b3480156104c557600080fd5b506104d96104d4366004614096565b611d5a565b60408051948552602085019390935290151591830191909152151560608201526080016102fb565b34801561050d57600080fd5b50600754610435565b6103506105243660046140c2565b611df9565b34801561053557600080fd5b5061053e611f16565b6040516102fb919061449c565b34801561055757600080fd5b5061043560045481565b34801561056d57600080fd5b5061043561057c3660046140c2565b6000908152600b602052604090205490565b34801561059a57600080fd5b506104356105a93660046140c2565b6000908152600a602052604090205490565b3480156105c757600080fd5b50610350611f6e565b3480156105dc57600080fd5b5061043560035481565b3480156105f257600080fd5b5061043560065481565b34801561060857600080fd5b506000546040516001600160a01b0390911681526020016102fb565b34801561063057600080fd5b5061043561063f366004614096565b600d60209081526000928352604080842090915290825290205481565b34801561066857600080fd5b50610671611f82565b6040516102fb97969594939291906144e0565b34801561069057600080fd5b506106a461069f3660046142e1565b612339565b604080516001600160a01b0390941684526020840192909252908201526060016102fb565b3480156106d557600080fd5b5061043560025481565b3480156106eb57600080fd5b506106ff6106fa3660046140c2565b612385565b6040516102fb919061452e565b61035061071a3660046142e1565b6124df565b34801561072b57600080fd5b5061035061073a3660046140c2565b6126ea565b34801561074b57600080fd5b5061035061075a3660046142e1565b612894565b34801561076b57600080fd5b5061035061077a36600461442f565b6129e2565b34801561078b57600080fd5b5061035061079a3660046140c2565b612d1a565b3480156107ab57600080fd5b506108366107ba366004614096565b6000918252600e602090815260408084206001600160a01b0393909316845291815291819020815160c0810183528154815260018201549381019390935260028101549183018290526003015460ff8082161515606085015261010082048116151560808501526201000090910416151560a090920182905291565b604080519283529015156020830152016102fb565b34801561085757600080fd5b506108ae610866366004614096565b600e60209081526000928352604080842090915290825290208054600182015460028301546003909301549192909160ff808216916101008104821691620100009091041686565b604080519687526020870195909552938501929092521515606084015215156080830152151560a082015260c0016102fb565b3480156108ed57600080fd5b506109016108fc3660046142e1565b612ee8565b6040516102fb93929190614548565b34801561091c57600080fd5b50610925612fbe565b6040516102fb919061457c565b34801561093e57600080fd5b5061035061094d3660046140c2565b6131c9565b34801561095e57600080fd5b5061043561096d3660046140c2565b613346565b34801561097e57600080fd5b50610925613367565b34801561099357600080fd5b5061035061356c565b3480156109a857600080fd5b506103506109b73660046140c2565b61362e565b3480156109c857600080fd5b5061053e613897565b3480156109dd57600080fd5b506103506109ec36600461458f565b6138ed565b3480156109fd57600080fd5b50610435610a0c3660046140c2565b613928565b60096020526000908152604090208054600182018054919291610a33906145aa565b80601f0160208091040260200160405190810160405280929190818152602001828054610a5f906145aa565b8015610aac5780601f10610a8157610100808354040283529160200191610aac565b820191906000526020600020905b815481529060010190602001808311610a8f57829003601f168201915b50505060028401546003850154600486015460058701546006880154600789015460088a01546009909a015498999598949750929550909390926001600160a01b0383169260ff600160a01b8204811693600160a81b8304821693600160b01b909304909116918d565b610b1e613938565b60008411610b735760405162461bcd60e51b815260206004820152601e60248201527f47616d65204944206d7573742062652067726561746572207468616e2030000060448201526064015b60405180910390fd5b60008481526009602052604090205415610bc85760405162461bcd60e51b815260206004820152601660248201527547616d6520494420616c72656164792065786973747360501b6044820152606401610b6a565b60008111610c245760405162461bcd60e51b815260206004820152602360248201527f546f74616c20706978656c73206d75737420626520677265617465722074686160448201526206e20360ec1b6064820152608401610b6a565b81610c7c5760405162461bcd60e51b815260206004820152602260248201527f416e7377657220636f6d6d697420686173682063616e6e6f7420626520656d70604482015261747960f01b6064820152608401610b6a565b600554841115610c8c5760058490555b6007805460018181019092557fa66cc928b5edb82af9bd49922954155ab7b0942694bea4ce44661d9a8736c68801859055600880548083019091557ff3f7a9fe364faab93b216da50a3214154f22a0a2b415b23a84c8169e8b636ee301859055604080516101a0810182528681526020818101878152828401879052606083018690526000608084018190523460a085015260c0840181905260e0840181905261010084018190526101208401819052610140840181905242610160850152610180840181905289815260099092529290208151815591519092820190610d739082614624565b506040828101516002830155606083015160038301556080830151600483015560a0830151600583015560c0830151600683015560e08301516007830180546101008601516101208701516101408801511515600160b01b0260ff60b01b19911515600160a81b029190911661ffff60a81b19921515600160a01b026001600160a81b03199094166001600160a01b03909616959095179290921716929092179190911790556101608301516008830155610180909201516009909101555184907f7f7dedcb30d262cb0cbf924e0f6afd58e212a01bd4627e8b1fd265dee8065d5f90610e65908690859034906146e4565b60405180910390a250505050565b610e7b613938565b600082118015610e8d57506005548211155b610ea95760405162461bcd60e51b8152600401610b6a90614709565b60008281526009602052604090208054610ed55760405162461bcd60e51b8152600401610b6a90614732565b6007810154600160a81b900460ff1615610f315760405162461bcd60e51b815260206004820152601f60248201527f43616e6e6f742073757370656e64206120636f6d706c657465642067616d65006044820152606401610b6a565b60078101805483158015600160b01b0260ff60b01b19909216919091179091558290610f6857506007810154600160a01b900460ff165b15610f945760078101805460ff60a01b19169055600654839003610f94576000600655610f9483613965565b827fcd09bff273690af42206625eff56e03755ae7c362d84b5f7aa7f9c63da64e77b83604051610fc8911515815260200190565b60405180910390a2505050565b610fdd613a5a565b60008281526009602052604090206007810154600160a01b900460ff166110165760405162461bcd60e51b8152600401610b6a9061475f565b600082116110665760405162461bcd60e51b815260206004820152601e60248201527f4d7573742072657665616c206174206c65617374206f6e6520706978656c00006044820152606401610b6a565b806003015482826004015461107b91906147a1565b11156110c05760405162461bcd60e51b81526020600482015260146024820152734578636565647320746f74616c20706978656c7360601b6044820152606401610b6a565b818160040160008282546110d491906147a1565b90915550506000838152600d60209081526040808320338452909152812080548492906111029084906147a1565b90915550506000838152600a6020908152604080832081516060810183523380825281850188815242838601908152845460018082018755958952978790209351600390980290930180546001600160a01b0319166001600160a01b03909816979097178755519286019290925551600290940193909355600584015481518681529283015285917fce3f0f975ff929704e0e8483e205180d489fc6fc9b9144290babc82a4a11e77091015b60405180910390a3506111c060018055565b5050565b6111cc613938565b6111d4613a5a565b6000811180156111e657506005548111155b6112025760405162461bcd60e51b8152600401610b6a90614709565b6000818152600960205260409020805461122e5760405162461bcd60e51b8152600401610b6a90614732565b60078101546001600160a01b0316156112945760405162461bcd60e51b815260206004820152602260248201527f43616e6e6f742064656c65746520612067616d65207769746820612077696e6e60448201526132b960f11b6064820152608401610b6a565b6000816006015482600501546112aa91906147b4565b905082600654036112d757600060065560078201805460ff60a01b191690556112d283613965565b6112fb565b6007820154600160a01b900460ff16156112fb5760078201805460ff60a01b191690555b6007820154600160a81b900460ff166113175761131783613a84565b60005b6007548110156113d0578360078281548110611338576113386147c7565b9060005260206000200154036113be5760078054611358906001906147b4565b81548110611368576113686147c7565b906000526020600020015460078281548110611386576113866147c7565b60009182526020909120015560078054806113a3576113a36147dd565b600190038181906000526020600020016000905590556113d0565b806113c8816147f3565b91505061131a565b5060078201805460ff60a81b1916600160a81b179055426009830155801561146757600080546040516001600160a01b039091169083908381818185875af1925050503d806000811461143f576040519150601f19603f3d011682016040523d82523d6000602084013e611444565b606091505b50509050806114655760405162461bcd60e51b8152600401610b6a9061480c565b505b827f7bc3b972a4373ef6aa37eb79112277d83ca4b73d77cd852f60712591af4969468260405161149991815260200190565b60405180910390a250506114ac60018055565b50565b6114b7613938565b6114bf613a5a565b47806115065760405162461bcd60e51b81526020600482015260166024820152754e6f2062616c616e636520746f20776974686472617760501b6044820152606401610b6a565b600082116115565760405162461bcd60e51b815260206004820152601d60248201527f416d6f756e74206d7573742062652067726561746572207468616e20300000006044820152606401610b6a565b808211156115a65760405162461bcd60e51b815260206004820152601d60248201527f496e73756666696369656e7420636f6e74726163742062616c616e63650000006044820152606401610b6a565b600080546040516001600160a01b039091169084908381818185875af1925050503d80600081146115f3576040519150601f19603f3d011682016040523d82523d6000602084013e6115f8565b606091505b50509050806116195760405162461bcd60e51b8152600401610b6a9061480c565b50506114ac60018055565b61162c613938565b6000811161167c5760405162461bcd60e51b815260206004820152601a60248201527f466565206d7573742062652067726561746572207468616e20300000000000006044820152606401610b6a565b600280549082905560408051828152602081018490527fc8160f08314b355774165ac486e54ee0f4242ce781fee22cca2f2c248e7d2ecf91015b60405180910390a15050565b60075460609060009080851061170d576040805160008082526020820190925290611703565b6116f0614000565b8152602001906001900390816116e85790505b5092509050611943565b600061171986836147b4565b9050600085821061172a578561172c565b815b905060008167ffffffffffffffff811115611749576117496141b2565b60405190808252806020026020018201604052801561178257816020015b61176f614000565b8152602001906001900390816117675790505b50905060005b8281101561193a576000600761179e838c6147a1565b815481106117ae576117ae6147c7565b9060005260206000200154905060096000828152602001908152602001600020604051806101a0016040529081600082015481526020016001820180546117f4906145aa565b80601f0160208091040260200160405190810160405280929190818152602001828054611820906145aa565b801561186d5780601f106118425761010080835404028352916020019161186d565b820191906000526020600020905b81548152906001019060200180831161185057829003601f168201915b505050918352505060028201546020820152600382015460408201526004820154606082015260058201546080820152600682015460a082015260078201546001600160a01b03811660c083015260ff600160a01b82048116151560e0840152600160a81b820481161515610100840152600160b01b909104161515610120820152600882015461014082015260099091015461016090910152835184908490811061191b5761191b6147c7565b6020026020010181905250508080611932906147f3565b915050611788565b50945091925050505b9250929050565b611952613938565b61195a613a5a565b60008181526009602052604090206007810154600160a01b900460ff16156119bb5760405162461bcd60e51b815260206004820152601460248201527347616d65206973207374696c6c2061637469766560601b6044820152606401610b6a565b60078101546001600160a01b0316611a0e5760405162461bcd60e51b8152602060048201526016602482015275139bc81dda5b9b995c88191958db185c9959081e595d60521b6044820152606401610b6a565b6000828152600e6020908152604080832083805290915290206003810154610100900460ff1615611a8d5760405162461bcd60e51b815260206004820152602360248201527f52657665616c6572207072697a657320616c72656164792064697374726962756044820152621d195960ea1b6064820152608401610b6a565b6000816001015411611ae15760405162461bcd60e51b815260206004820152601b60248201527f4e6f2072657665616c6572207072697a6520617661696c61626c6500000000006044820152606401610b6a565b60038101805461ff00191661010017905560018101546007830154611b109185916001600160a01b0316613b3c565b8060010154826006016000828254611b2891906147a1565b909155505060018055506114ac9050565b6000828152600d602090815260408083206001600160a01b03851684529091529020545b92915050565b611b6b613a5a565b60008381526009602052604090206007810154600160a01b900460ff16611ba45760405162461bcd60e51b8152600401610b6a9061475f565b60078101546001600160a01b031615611bcf5760405162461bcd60e51b8152600401610b6a90614835565b60008383604051602001611be492919061485f565b60405160208183030381529060405280519060200120905081600201548114611c425760405162461bcd60e51b815260206004820152601060248201526f24b731b7b93932b1ba1030b739bbb2b960811b6044820152606401610b6a565b60078201805461ffff60a01b1933166001600160b01b031990911617600160a81b179055426009830155611c7585613a84565b8460065403611c845760006006555b6005820154600354600090606490611c9c908461488e565b611ca691906148a5565b90506000606460045484611cba919061488e565b611cc491906148a5565b6000898152600e6020908152604080832083805290915290208381556001810182905560038101805461ffff1916610100179055909150611d06898333613b3c565b60405184815233908a907f7ed5face07afb2b0e99df53523951350d2a3d4f5d105a0dd2110703efe3995379060200160405180910390a3611d4689613965565b505050505050611d5560018055565b505050565b6000828152600c602090815260408083206001600160a01b038516845282528083208151606081018352815480825260018301549482019490945260029091015460ff16151591810191909152829182918291829015801590611dbf57508160400151155b8015611ddb575060028260200151611dd791906147a1565b4310155b82516020840151604090940151909a93995097509550909350505050565b611e01613938565b60003411611e5f5760405162461bcd60e51b815260206004820152602560248201527f4465706f73697420616d6f756e74206d75737420626520677265617465722074604482015264068616e20360dc1b6064820152608401610b6a565b60008181526009602052604090208054611e8b5760405162461bcd60e51b8152600401610b6a90614732565b60078101546001600160a01b031615611eb65760405162461bcd60e51b8152600401610b6a90614835565b34816005016000828254611eca91906147a1565b90915550506005810154604080513481526020810192909252339184917f8235d65791fe2c87bd88b1c43846194851f3cbbbd7f4ee6a0952b1072bd9417f910160405180910390a35050565b60606007805480602002602001604051908101604052809291908181526020018280548015611f6457602002820191906000526020600020905b815481526020019060010190808311611f50575b5050505050905090565b611f76613938565b611f806000613d39565b565b600060606000806000806000806006541115612131576000600960006006548152602001908152602001600020604051806101a001604052908160008201548152602001600182018054611fd5906145aa565b80601f0160208091040260200160405190810160405280929190818152602001828054612001906145aa565b801561204e5780601f106120235761010080835404028352916020019161204e565b820191906000526020600020905b81548152906001019060200180831161203157829003601f168201915b505050918352505060028201546020820152600382015460408201526004820154606082015260058201546080820152600682015460a082015260078201546001600160a01b03811660c083015260ff600160a01b82048116151560e0840152600160a81b82048116151561010080850191909152600160b01b9092041615156101208301526008830154610140830152600990920154610160909101528101519091501561212f5780600001518160200151826060015183608001518460a001518560e00151866101000151975097509750975097509750975050612330565b505b60005b60075481101561230c57600060078281548110612153576121536147c7565b90600052602060002001549050600060096000838152602001908152602001600020604051806101a00160405290816000820154815260200160018201805461219b906145aa565b80601f01602080910402602001604051908101604052809291908181526020018280546121c7906145aa565b80156122145780601f106121e957610100808354040283529160200191612214565b820191906000526020600020905b8154815290600101906020018083116121f757829003601f168201915b505050918352505060028201546020820152600382015460408201526004820154606082015260058201546080820152600682015460a082015260078201546001600160a01b03811660c083015260ff600160a01b82048116151560e0840152600160a81b82048116151561010080850191909152600160b01b909204161515610120830152600883015461014083015260099092015461016090910152810151909150156122f75780600001518160200151826060015183608001518460a001518560e001518661010001519950995099509950995099509950505050612330565b50508080612304906147f3565b915050612134565b50506040805160208101909152600080825296509450859350839250829150819050805b90919293949596565b600a602052816000526040600020818154811061235557600080fd5b60009182526020909120600390910201805460018201546002909201546001600160a01b03909116935090915083565b61238d614000565b60096000838152602001908152602001600020604051806101a0016040529081600082015481526020016001820180546123c6906145aa565b80601f01602080910402602001604051908101604052809291908181526020018280546123f2906145aa565b801561243f5780601f106124145761010080835404028352916020019161243f565b820191906000526020600020905b81548152906001019060200180831161242257829003601f168201915b505050918352505060028201546020820152600382015460408201526004820154606082015260058201546080820152600682015460a082015260078201546001600160a01b03811660c083015260ff600160a01b82048116151560e0840152600160a81b820481161515610100840152600160b01b90910416151561012082015260088201546101408201526009909101546101609091015292915050565b6124e7613a5a565b60008281526009602052604090206007810154600160a01b900460ff166125205760405162461bcd60e51b8152600401610b6a9061475f565b8161256d5760405162461bcd60e51b815260206004820152601b60248201527f436f6d6d697420686173682063616e6e6f7420626520656d70747900000000006044820152606401610b6a565b60025434146125be5760405162461bcd60e51b815260206004820152601860248201527f496e636f7272656374207061796d656e7420616d6f756e7400000000000000006044820152606401610b6a565b60078101546001600160a01b0316156125e95760405162461bcd60e51b8152600401610b6a90614835565b6000838152600c60209081526040808320338452909152902054156126445760405162461bcd60e51b8152602060048201526011602482015270105b1c9958591e4818dbdb5b5a5d1d1959607a1b6044820152606401610b6a565b3481600501600082825461265891906147a1565b9091555050604080516060810182528381524360208083018281526000848601818152898252600c84528682203380845290855291879020955186559151600186015590516002909401805460ff191694151594909417909355835186815290810191909152909185917fa92e8adb2f40ce2d1fbaf664d9bbe7aaf2248be5daaabc2c64b71cd5b589ec9391016111ae565b6126f2613938565b60008111801561270457506005548111155b6127205760405162461bcd60e51b8152600401610b6a90614709565b60008181526009602052604090206007810154600160a81b900460ff161561278a5760405162461bcd60e51b815260206004820181905260248201527f43616e6e6f74206163746976617465206120636f6d706c657465642067616d656044820152606401610b6a565b6007810154600160b01b900460ff16156127e65760405162461bcd60e51b815260206004820181905260248201527f43616e6e6f7420616374697661746520612073757370656e6465642067616d656044820152606401610b6a565b60065480158015906128135750600654600090815260096020526040902060070154600160a01b900460ff165b801561282157508260065414155b15612846576006546000908152600960205260409020600701805460ff60a01b191690555b60078201805460ff60a01b1916600160a01b179055600683905560405183907f50f6e2ecd2423ef33ff5d71c7627898b38274216137dbe58d902c8cf50f1be6390610fc89084815260200190565b61289c613938565b6128a681836147a1565b6064146128f55760405162461bcd60e51b815260206004820152601b60248201527f50657263656e7461676573206d7573742073756d20746f2031303000000000006044820152606401610b6a565b600082118015612906575060648211155b6129525760405162461bcd60e51b815260206004820152601960248201527f496e76616c69642077696e6e65722070657263656e74616765000000000000006044820152606401610b6a565b606481106129a25760405162461bcd60e51b815260206004820152601b60248201527f496e76616c69642072657665616c65722070657263656e7461676500000000006044820152606401610b6a565b6003829055600481905560408051838152602081018390527fd3df56766ddb000ec4baeedc57e730d6fdda10f47ceec2e2c8a3a711b0e81edf91016116b6565b6129ea613a5a565b60008381526009602052604090206007810154600160a01b900460ff16612a235760405162461bcd60e51b8152600401610b6a9061475f565b6000835111612a6c5760405162461bcd60e51b815260206004820152601560248201527447756573732063616e6e6f7420626520656d70747960581b6044820152606401610b6a565b60078101546001600160a01b031615612a975760405162461bcd60e51b8152600401610b6a90614835565b6000848152600c6020908152604080832033845290915290208054612af05760405162461bcd60e51b815260206004820152600f60248201526e139bc818dbdb5b5a5d08199bdd5b99608a1b6044820152606401610b6a565b600281015460ff1615612b385760405162461bcd60e51b815260206004820152601060248201526f105b1c9958591e481c995d99585b195960821b6044820152606401610b6a565b60028160010154612b4991906147a1565b431015612b985760405162461bcd60e51b815260206004820152601a60248201527f4d7573742077616974206265666f72652072657665616c696e670000000000006044820152606401610b6a565b60008484604051602001612bad92919061485f565b60405160208183030381529060405280519060200120905081600001548114612c185760405162461bcd60e51b815260206004820152601c60248201527f52657665616c20646f6573206e6f74206d6174636820636f6d6d6974000000006044820152606401610b6a565b600282018054600160ff1990911681179091556000878152600b6020908152604080832081516060810183523381528084018b815242938201939093528154808701835591855292909320825160039094020180546001600160a01b0319166001600160a01b03909416939093178355519092820190612c989082614624565b506040918201516002918201556000888152600c602090815283822033808452915283822082815560018101839055909201805460ff191690559151909188917f901089ff30b8ac62c3ad0db2af061f44fbd8962ae6b63476a986ee380617a20791612d06918a91906148c7565b60405180910390a3505050611d5560018055565b612d22613a5a565b6000818152600960209081526040808320600e83528184203385529092529091206002810154612d885760405162461bcd60e51b81526020600482015260116024820152704e6f207072697a6520746f20636c61696d60781b6044820152606401610b6a565b600381015462010000900460ff1615612ddb5760405162461bcd60e51b8152602060048201526015602482015274141c9a5e9948185b1c9958591e4818db185a5b5959605a1b6044820152606401610b6a565b600281015460038201805462ff0000191662010000179055600683018054829190600090612e0a9084906147a1565b9091555050604051600090339083908381818185875af1925050503d8060008114612e51576040519150601f19603f3d011682016040523d82523d6000602084013e612e56565b606091505b5050905080612e775760405162461bcd60e51b8152600401610b6a9061480c565b336001600160a01b0316857f8f2f4bd9d81ad079c43e72f213c3314db1bb5e999e5356cf9705c791fdf8e25b84604051612ed3918152604060208201819052600890820152673932bb32b0b632b960c11b606082015260800190565b60405180910390a3505050506114ac60018055565b600b6020528160005260406000208181548110612f0457600080fd5b6000918252602090912060039091020180546001820180546001600160a01b039092169450919250612f35906145aa565b80601f0160208091040260200160405190810160405280929190818152602001828054612f61906145aa565b8015612fae5780601f10612f8357610100808354040283529160200191612fae565b820191906000526020600020905b815481529060010190602001808311612f9157829003601f168201915b5050505050908060020154905083565b60085460609060009067ffffffffffffffff811115612fdf57612fdf6141b2565b60405190808252806020026020018201604052801561301857816020015b613005614000565b815260200190600190039081612ffd5790505b50905060005b6008548110156131c357600960006008838154811061303f5761303f6147c7565b90600052602060002001548152602001908152602001600020604051806101a00160405290816000820154815260200160018201805461307e906145aa565b80601f01602080910402602001604051908101604052809291908181526020018280546130aa906145aa565b80156130f75780601f106130cc576101008083540402835291602001916130f7565b820191906000526020600020905b8154815290600101906020018083116130da57829003601f168201915b505050918352505060028201546020820152600382015460408201526004820154606082015260058201546080820152600682015460a082015260078201546001600160a01b03811660c083015260ff600160a01b82048116151560e0840152600160a81b820481161515610100840152600160b01b90910416151561012082015260088201546101408201526009909101546101609091015282518390839081106131a5576131a56147c7565b602002602001018190525080806131bb906147f3565b91505061301e565b50919050565b6131d1613a5a565b60008181526009602052604090206007810154600160a01b900460ff1661320a5760405162461bcd60e51b8152600401610b6a9061475f565b60078101546001600160a01b0316156132355760405162461bcd60e51b8152600401610b6a90614835565b6000828152600c602090815260408083203384529091529020805461328e5760405162461bcd60e51b815260206004820152600f60248201526e139bc818dbdb5b5a5d08199bdd5b99608a1b6044820152606401610b6a565b600281015460ff16156132e35760405162461bcd60e51b815260206004820152601f60248201527f416c72656164792072657665616c65642c2063616e6e6f742063616e63656c006044820152606401610b6a565b6000838152600c6020908152604080832033808552925280832083815560018101849055600201805460ff1916905551909185917f136af2af9efc57319058ebe5441c15968d0ee358291cb2c9c347bff7118bfe3b9190a350506114ac60018055565b6007818154811061335657600080fd5b600091825260209091200154905081565b60075460609060009067ffffffffffffffff811115613388576133886141b2565b6040519080825280602002602001820160405280156133c157816020015b6133ae614000565b8152602001906001900390816133a65790505b50905060005b6007548110156131c35760096000600783815481106133e8576133e86147c7565b90600052602060002001548152602001908152602001600020604051806101a001604052908160008201548152602001600182018054613427906145aa565b80601f0160208091040260200160405190810160405280929190818152602001828054613453906145aa565b80156134a05780601f10613475576101008083540402835291602001916134a0565b820191906000526020600020905b81548152906001019060200180831161348357829003601f168201915b505050918352505060028201546020820152600382015460408201526004820154606082015260058201546080820152600682015460a082015260078201546001600160a01b03811660c083015260ff600160a01b82048116151560e0840152600160a81b820481161515610100840152600160b01b909104161515610120820152600882015461014082015260099091015461016090910152825183908390811061354e5761354e6147c7565b60200260200101819052508080613564906147f3565b9150506133c7565b613574613938565b47806135bb5760405162461bcd60e51b81526020600482015260166024820152754e6f2062616c616e636520746f20776974686472617760501b6044820152606401610b6a565b600080546040516001600160a01b039091169083908381818185875af1925050503d8060008114613608576040519150601f19603f3d011682016040523d82523d6000602084013e61360d565b606091505b50509050806111c05760405162461bcd60e51b8152600401610b6a9061480c565b613636613a5a565b60008181526009602052604090206007810154600160a01b900460ff16156136975760405162461bcd60e51b815260206004820152601460248201527347616d65206973207374696c6c2061637469766560601b6044820152606401610b6a565b60078101546001600160a01b031633146136ec5760405162461bcd60e51b81526020600482015260166024820152752cb7ba9030b932903737ba103a3432903bb4b73732b960511b6044820152606401610b6a565b6000828152600e602090815260408083208380529091529020600381015460ff161561375a5760405162461bcd60e51b815260206004820152601c60248201527f57696e6e6572207072697a6520616c726561647920636c61696d6564000000006044820152606401610b6a565b80546137a85760405162461bcd60e51b815260206004820152601960248201527f4e6f2077696e6e6572207072697a6520617661696c61626c65000000000000006044820152606401610b6a565b805460038201805460ff191660011790556006830180548291906000906137d09084906147a1565b9091555050604051600090339083908381818185875af1925050503d8060008114613817576040519150601f19603f3d011682016040523d82523d6000602084013e61381c565b606091505b505090508061383d5760405162461bcd60e51b8152600401610b6a9061480c565b336001600160a01b0316857f8f2f4bd9d81ad079c43e72f213c3314db1bb5e999e5356cf9705c791fdf8e25b84604051612ed3918152604060208201819052600690820152653bb4b73732b960d11b606082015260800190565b60606008805480602002602001604051908101604052809291908181526020018280548015611f645760200282019190600052602060002090815481526020019060010190808311611f50575050505050905090565b6138f5613938565b6001600160a01b03811661391f57604051631e4fbdf760e01b815260006004820152602401610b6a565b6114ac81613d39565b6008818154811061335657600080fd5b6000546001600160a01b03163314611f805760405163118cdaa760e01b8152336004820152602401610b6a565b60005b6008548110156111c057600060088281548110613987576139876147c7565b600091825260208083209091015480835260099091526040909120909150838214806139be57506007810154600160a01b900460ff165b156139ca575050613a48565b6007810154600160a81b900460ff161580156139f257506007810154600160b01b900460ff16155b15613a455760078101805460ff60a01b1916600160a01b179055600682905560405182907f50f6e2ecd2423ef33ff5d71c7627898b38274216137dbe58d902c8cf50f1be6390610e659087815260200190565b50505b80613a52816147f3565b915050613968565b600260015403613a7d57604051633ee5aeb560e01b815260040160405180910390fd5b6002600155565b60005b6008548110156111c0578160088281548110613aa557613aa56147c7565b906000526020600020015403613b2a5760088054613ac5906001906147b4565b81548110613ad557613ad56147c7565b906000526020600020015460088281548110613af357613af36147c7565b6000918252602090912001556008805480613b1057613b106147dd565b600190038181906000526020600020016000905590555050565b80613b34816147f3565b915050613a87565b600080613b498584613d89565b905060005b8151811015613bd1576000828281518110613b6b57613b6b6147c7565b60200260200101519050846001600160a01b0316816001600160a01b031614613bbe576000878152600d602090815260408083206001600160a01b0385168452909152902054613bbb90856147a1565b93505b5080613bc9816147f3565b915050613b4e565b5081600003613c1b576000858152600e602090815260408083206001600160a01b038716845290915281206002018054869290613c0f9084906147a1565b90915550505050505050565b60005b8151811015613d31576000828281518110613c3b57613c3b6147c7565b6020908102919091018101516000898152600d835260408082206001600160a01b03808516808552919095529120549193509091871614801590613c7f5750600081115b15613d1c57600085613c91838a61488e565b613c9b91906148a5565b60008a8152600e602090815260408083206001600160a01b0388168452909152812060020180549293508392909190613cd59084906147a1565b90915550506040518181526001600160a01b038416908a907fdc1d0b6a7cbfa6f3b2d4325bab5a169b265ad0b2b4022fb550364f0dfeeb6a749060200160405180910390a3505b50508080613d29906147f3565b915050613c1e565b505050505050565b600080546001600160a01b038381166001600160a01b0319831681178455604051919092169283917f8be0079c531659141344cd1fd0a4f28419497f9722a3daafe3b4186f6b6457e09190a35050565b6000828152600a60209081526040808320805482518185028101850190935280835260609493849084015b82821015613e09576000848152602090819020604080516060810182526003860290920180546001600160a01b0316835260018082015484860152600290910154918301919091529083529092019101613db4565b5050505090506000815167ffffffffffffffff811115613e2b57613e2b6141b2565b604051908082528060200260200182016040528015613e54578160200160208202803683370190505b5090506000805b8351811015613f4c576000848281518110613e7857613e786147c7565b6020026020010151600001519050866001600160a01b0316816001600160a01b031614613f39576000805b84811015613ef857826001600160a01b0316868281518110613ec757613ec76147c7565b60200260200101516001600160a01b031603613ee65760019150613ef8565b80613ef0816147f3565b915050613ea3565b5080613f375781858581518110613f1157613f116147c7565b6001600160a01b039092166020928302919091019091015283613f33816147f3565b9450505b505b5080613f44816147f3565b915050613e5b565b5060008167ffffffffffffffff811115613f6857613f686141b2565b604051908082528060200260200182016040528015613f91578160200160208202803683370190505b50905060005b82811015613ff557838181518110613fb157613fb16147c7565b6020026020010151828281518110613fcb57613fcb6147c7565b6001600160a01b039092166020928302919091019091015280613fed816147f3565b915050613f97565b509695505050505050565b604051806101a001604052806000815260200160608152602001600080191681526020016000815260200160008152602001600081526020016000815260200160006001600160a01b0316815260200160001515815260200160001515815260200160001515815260200160008152602001600081525090565b80356001600160a01b038116811461409157600080fd5b919050565b600080604083850312156140a957600080fd5b823591506140b96020840161407a565b90509250929050565b6000602082840312156140d457600080fd5b5035919050565b60005b838110156140f65781810151838201526020016140de565b50506000910152565b600081518084526141178160208601602086016140db565b601f01601f19169290920160200192915050565b8d81526101a0602082015260006141466101a083018f6140ff565b90508c60408301528b60608301528a60808301528960a08301528860c083015260018060a01b03881660e083015286151561010083015285151561012083015261419561014083018615159052565b61016082019390935261018001529b9a5050505050505050505050565b634e487b7160e01b600052604160045260246000fd5b600082601f8301126141d957600080fd5b813567ffffffffffffffff808211156141f4576141f46141b2565b604051601f8301601f19908116603f0116810190828211818310171561421c5761421c6141b2565b8160405283815286602085880101111561423557600080fd5b836020870160208301376000602085830101528094505050505092915050565b6000806000806080858703121561426b57600080fd5b84359350602085013567ffffffffffffffff81111561428957600080fd5b614295878288016141c8565b949794965050505060408301359260600135919050565b600080604083850312156142bf57600080fd5b82359150602083013580151581146142d657600080fd5b809150509250929050565b600080604083850312156142f457600080fd5b50508035926020909101359150565b60006101a0825184526020830151816020860152614323828601826140ff565b91505060408301516040850152606083015160608501526080830151608085015260a083015160a085015260c083015160c085015260e083015161437260e08601826001600160a01b03169052565b5061010083810151151590850152610120808401511515908501526101408084015115159085015261016080840151908501526101809283015192909301919091525090565b600081518084526020808501808196508360051b8101915082860160005b858110156144005782840389526143ee848351614303565b988501989350908401906001016143d6565b5091979650505050505050565b60408152600061442060408301856143b8565b90508260208301529392505050565b60008060006060848603121561444457600080fd5b83359250602084013567ffffffffffffffff8082111561446357600080fd5b61446f878388016141c8565b9350604086013591508082111561448557600080fd5b50614492868287016141c8565b9150509250925092565b6020808252825182820181905260009190848201906040850190845b818110156144d4578351835292840192918401916001016144b8565b50909695505050505050565b87815260e0602082015260006144f960e08301896140ff565b604083019790975250606081019490945260808401929092526001600160a01b031660a0830152151560c09091015292915050565b6020815260006145416020830184614303565b9392505050565b6001600160a01b038416815260606020820181905260009061456c908301856140ff565b9050826040830152949350505050565b60208152600061454160208301846143b8565b6000602082840312156145a157600080fd5b6145418261407a565b600181811c908216806145be57607f821691505b6020821081036131c357634e487b7160e01b600052602260045260246000fd5b601f821115611d5557600081815260208120601f850160051c810160208610156146055750805b601f850160051c820191505b81811015613d3157828155600101614611565b815167ffffffffffffffff81111561463e5761463e6141b2565b6146528161464c84546145aa565b846145de565b602080601f831160018114614687576000841561466f5750858301515b600019600386901b1c1916600185901b178555613d31565b600085815260208120601f198616915b828110156146b657888601518255948401946001909101908401614697565b50858210156146d45787850151600019600388901b60f8161c191681555b5050505050600190811b01905550565b6060815260006146f760608301866140ff565b60208301949094525060400152919050565b6020808252600f908201526e125b9d985b1a590819d85b59481251608a1b604082015260600190565b60208082526013908201527211d85b5948191bd95cc81b9bdd08195e1a5cdd606a1b604082015260600190565b60208082526012908201527147616d65206973206e6f742061637469766560701b604082015260600190565b634e487b7160e01b600052601160045260246000fd5b80820180821115611b5d57611b5d61478b565b81810381811115611b5d57611b5d61478b565b634e487b7160e01b600052603260045260246000fd5b634e487b7160e01b600052603160045260246000fd5b6000600182016148055761480561478b565b5060010190565b6020808252600f908201526e151c985b9cd9995c8819985a5b1959608a1b604082015260600190565b60208082526010908201526f23b0b6b29030b63932b0b23c903bb7b760811b604082015260600190565b600083516148718184602088016140db565b8351908301906148858183602088016140db565b01949350505050565b8082028115828204841417611b5d57611b5d61478b565b6000826148c257634e487b7160e01b600052601260045260246000fd5b500490565b6040815260006148da60408301856140ff565b90508215156020830152939250505056fea2646970667358221220db3102fde7daa2b72401be8a1214426a3415228e4192ccbec864128860eeb57a64736f6c63430008140033",
  "linkReferences": {},
  "deployedLinkReferences": {}
}